S01700004763634170706C69636174696F6E312E737265635B
S11300000C94BA000C94D7000C94D7000C94D7002D
S11300100C94D7000C94D7000C94D7000C94D70000
S11300200C94D7000C94D7000C94D7000C94D700F0
S11300300C94D7000C94D7000C94D7000C94D700E0
S11300400C94D7000C94D7000C94D7000C94D700D0
S11300500C94D700E500FE00190132014A014A015F
S11300604A014A014A014A014A014A014A014A0134
S11300704A014A014A014A014A014A014A014A0124
S11300804A014A014A014A014A014A014A014A0114
S11300904A014A01E500FE001901320157017001CD
S11300A08901A201BA01BA01BA01BA01BA01BA01BD
S11300B0BA01BA01BA01BA01BA01BA01BA01BA0164
S11300C0BA01BA01BA01BA01BA01BA01BA01BA0154
S11300D0BA01BA01BA01BA01BA01BA0157017001F1
S11300E08901A201C701D901EB01FD010F020F0231
S11300F00F020F020F020F020F020F020F020F0274
S11301000F020F020F020F020F020F020F020F0263
S11301100F020F020F020F020F020F020F020F0253
S11301200F020F02C701D901EB01FD011C021E02DF
S11301302002220223022302230223022302230297
S11301402302230223022302230223022302230283
S11301502302230223022302230223022302230273
S11301602302230223022302230223021C021E026F
S11301702002220211241FBECFE5D8E0DEBFCDBF8E
S113018010E0A0E6B0E0E8EAF8E002C005900D92C5
S1130190A037B107D9F720E0A0E7B0E001C01D9275
S11301A0A437B207E1F70E9408030C9452040C949C
S11301B0000090E0FC01E154F109E432F10508F09B
S11301C069C0E65DFF4F0C944C04413059F42AB3E6
S11301D081E090E002C0880F991F6A95E2F7822BB4
S11301E08ABB08952AB381E090E002C0880F991F6A
S11301F06A95E2F7809582238ABB0895413061F4C1
S113020027B381E090E0062E02C0880F991F0A945C
S1130210E2F7822B87BB0FC027B381E090E0062E64
S113022002C0880F991F0A94E2F78095822387BB46
S11302300DC0413059F424B381E090E002C0880F2E
S1130240991F6A95E2F7822B84BB089524B381E059
S113025090E002C0880F991F6A95E2F78095822387
S113026084BB0895413059F421B381E090E002C089
S1130270880F991F6A95E2F7822B81BB089521B3F9
S113028081E090E002C0880F991F6A95E2F780959B
S1130290822381BB089590E0FC01E154F109E4322A
S11302A0F10508F067C0E25BFF4F0C944C04413049
S11302B059F42BB381E090E002C0880F991F6A952E
S11302C0E2F7822B8BBB08952BB381E090E002C050
S11302D0880F991F6A95E2F7809582238BBB089556
S11302E0413059F428B381E090E002C0880F991F8F
S11302F06A95E2F7822B88BB089528B381E090E0E9
S113030002C0880F991F6A95E2F78095822388BB03
S11303100895413059F425B381E090E002C0880F7C
S1130320991F6A95E2F7822B85BB089525B381E076
S113033090E002C0880F991F6A95E2F780958223A6
S113034085BB0895413059F422B381E090E002C0A6
S1130350880F991F6A95E2F7822B82BB089522B316
S113036081E090E002C0880F991F6A95E2F78095BA
S1130370822382BB089590E0FC01E154F109E43248
S1130380F10508F04CC0EE58FF4F0C944C0429B30F
S113039081E090E0062E02C0880F991F0A94E2F7CC
S11303A030E08223932302C0959587956A95E2F7FE
S11303B0089526B381E090E0062E02C0880F991FAD
S11303C00A94E2F730E08223932302C0959587953F
S11303D06A95E2F7089523B381E090E0062E02C007
S11303E0880F991F0A94E2F730E08223932302C016
S11303F0959587956A95E2F7089520B381E090E09A
S1130400062E02C0880F991F0A94E2F730E0822377
S1130410932302C0959587956A95E2F7089580E045
S1130420089590E0FC01E154F109E432F10558F437
S1130430EA56FF4F0C944C046ABB089567BB0895B9
S113044064BB089561BB08956295607F823479F03E
S113045018F4813431F00895833479F0843499F0B8
S113046008958BB38F708BBB8BB3862B8BBB88B3F8
S11304708F7088BB88B3862B88BB85B38F7085BB90
S113048085B3862B85BB82B38F7082BB82B3682B06
S113049062BB089541E061E084E40E944B018FE96E
S11304A09FE00197F1F700C0000040E061E084E4C0
S11304B00E944B018FE99FE00197F1F700C0000013
S11304C00895CF93C82F682F62956F7084E40E94BB
S11304D0240240E060E084E40E944B010E944A024E
S11304E06C2F84E40E9424020E944A028FEC97E05D
S11304F00197F1F700C00000CF9108952FEF81EE2E
S113050094E0215080409040E1F700C0000060EF8B
S113051084E40E94110241E060E084E40E94D90076
S113052041E061E084E40E94D90082E00E9461021B
S11305308FE19EE40197F1F700C0000088E20E9479
S113054061028FEC97E00197F1F700C000008CE0A6
S11305500E9461028FEC97E00197F1F700C0000060
S113056081E00E9461028FE19EE40197F1F700C0EF
S1130570000086E00E9461028FEC97E00197F1F79A
S113058000C000000895CF93C82F682F62956F7044
S113059084E40E94240241E060E084E40E944B0170
S11305A00E944A026C2F84E40E9424020E944A02A0
S11305B0CF910895CF93DF93EC018881882331F0A4
S11305C021960E94C30289918111FBCFDF91CF91C3
S11305D008959FEF980F923070F49FEF960F90312B
S11305E060F4813019F42FE7260F08C0823031F40B
S11305F02FEB260F03C020E801C020E8822F0E94C1
S113060061028FEC97E00197F1F700C000000895B4
S11306100E947E0263E082E40E94450464E082E476
S11306200E94450465E082E40E94450466E082E499
S11306300E94450467E082E40E94450480E690E05D
S11306400E94DA026CE081E00E94E90284E690E014
S11306500E94DA0261E082E00E94E90288E690E00A
S11306600E94DA026CE082E00E94E9028CE690E0EB
S11306700E94DA02CDEC63E082E40E9449048130F6
S113068079F5809173008F5F8093730063E081E05C
S11306900E94E902809173008A3020F4805D0E94F8
S11306A0C302E9C0843608F0E6C08C9F812D112472
S11306B0869586958695805D0E94C302809173001D
S11306C08C9F912D1124969596959695990F292F87
S11306D0220F220F920F891B805D0E94C302CBC0A0
S11306E064E082E40E944904813079F580917200CB
S11306F08F5F809372006EE081E00E94E902809136
S113070072008A3020F4805D0E94C302B4C0843633
S113071008F0B1C08C9F812D11248695869586950D
S1130720805D0E94C302809172008C9F912D1124E0
S1130730969596959695990F292F220F220F920F31
S1130740891B805D0E94C30296C065E082E40E941A
S11307504904813079F5809171008F5F8093710035
S113076063E082E00E94E902809171008A3020F403
S1130770805D0E94C3027FC0843608F07CC08C9FD9
S1130780812D1124869586958695805D0E94C302ED
S1130790809171008C9F912D112496959695969534
S11307A0990F292F220F220F920F891B805D0E941F
S11307B0C30261C066E082E40E944904813079F595
S11307C0809170008F5F809370006EE082E00E94E1
S11307D0E902809170008A3020F4805D0E94C30297
S11307E04AC0843608F047C08C9F812D1124869519
S11307F086958695805D0E94C302809170008C9FCF
S1130800912D1124969596959695990F292F220F3F
S1130810220F920F891B805D0E94C3022CC067E0E7
S113082082E40E944904813031F5109270001092E4
S1130830710010927200109273000E94610280E6AF
S113084090E00E94DA026CE081E00E94E90284E612
S113085090E00E94DA0261E082E00E94E90288E608
S113086090E00E94DA026CE082E00E94E9028CE6E9
S113087090E00E94DA022FEF81EE94E02150804054
S11308809040E1F700C00000F6CE40E00E94D9009D
S113089008950E94BB010895EE0FFF1F0590F49187
S10B08A0E02D0994F894FFCF48
S11308A8413D3000423D3000433D3000443D30007E
S9030000FC
